{
  "contractName": "CrimeData",
  "abi": [
    {
      "constant": true,
      "inputs": [
        {
          "internalType": "uint256",
          "name": "",
          "type": "uint256"
        }
      ],
      "name": "crime",
      "outputs": [
        {
          "internalType": "uint256",
          "name": "crime_id",
          "type": "uint256"
        },
        {
          "internalType": "string",
          "name": "timestamp",
          "type": "string"
        },
        {
          "internalType": "string",
          "name": "offense_code",
          "type": "string"
        },
        {
          "internalType": "string",
          "name": "description",
          "type": "string"
        }
      ],
      "payable": false,
      "stateMutability": "view",
      "type": "function"
    },
    {
      "constant": false,
      "inputs": [
        {
          "internalType": "uint256",
          "name": "_crime_id",
          "type": "uint256"
        },
        {
          "internalType": "string",
          "name": "_timestamp",
          "type": "string"
        },
        {
          "internalType": "string",
          "name": "_offense_code",
          "type": "string"
        },
        {
          "internalType": "string",
          "name": "_description",
          "type": "string"
        }
      ],
      "name": "addCrimeReport",
      "outputs": [
        {
          "internalType": "uint256",
          "name": "",
          "type": "uint256"
        }
      ],
      "payable": false,
      "stateMutability": "nonpayable",
      "type": "function"
    },
    {
      "constant": true,
      "inputs": [],
      "name": "getCrimeCount",
      "outputs": [
        {
          "internalType": "uint256",
          "name": "",
          "type": "uint256"
        }
      ],
      "payable": false,
      "stateMutability": "view",
      "type": "function"
    },
    {
      "constant": true,
      "inputs": [
        {
          "internalType": "uint256",
          "name": "index",
          "type": "uint256"
        }
      ],
      "name": "getCrimeBlock",
      "outputs": [
        {
          "internalType": "uint256",
          "name": "",
          "type": "uint256"
        },
        {
          "internalType": "string",
          "name": "",
          "type": "string"
        },
        {
          "internalType": "string",
          "name": "",
          "type": "string"
        },
        {
          "internalType": "string",
          "name": "",
          "type": "string"
        }
      ],
      "payable": false,
      "stateMutability": "view",
      "type": "function"
    },
    {
      "constant": true,
      "inputs": [],
      "name": "getAllCrimeDetails",
      "outputs": [
        {
          "components": [
            {
              "internalType": "uint256",
              "name": "crime_id",
              "type": "uint256"
            },
            {
              "internalType": "string",
              "name": "timestamp",
              "type": "string"
            },
            {
              "internalType": "string",
              "name": "offense_code",
              "type": "string"
            },
            {
              "internalType": "string",
              "name": "description",
              "type": "string"
            }
          ],
          "internalType": "struct CrimeData.CrimeDetails[]",
          "name": "",
          "type": "tuple[]"
        }
      ],
      "payable": false,
      "stateMutability": "view",
      "type": "function"
    }
  ],
  "bytecode": "0x608060405234801561001057600080fd5b506110ba806100206000396000f3fe608060405234801561001057600080fd5b50600436106100575760003560e01c80633cb4c1cb1461005c578063644f30de1461008f57806398231bc9146100ad578063e9a51a77146100dd578063fdb917ed14610110575b600080fd5b61007660048036036100719190810190610b8f565b61012e565b6040516100869493929190610e85565b60405180910390f35b610097610391565b6040516100a49190610e26565b60405180910390f35b6100c760048036036100c29190810190610bb8565b610630565b6040516100d49190610e6a565b60405180910390f35b6100f760048036036100f29190810190610b8f565b610777565b6040516101079493929190610edf565b60405180910390f35b61011861097c565b6040516101259190610e6a565b60405180910390f35b600060608060606000858154811061014257fe5b9060005260206000209060040201600001546000868154811061016157fe5b90600052602060002090600402016001016000878154811061017f57fe5b90600052602060002090600402016002016000888154811061019d57fe5b9060005260206000209060040201600301828054600181600116156101000203166002900480601f0160208091040260200160405190810160405280929190818152602001828054600181600116156101000203166002900480156102435780601f1061021857610100808354040283529160200191610243565b820191906000526020600020905b81548152906001019060200180831161022657829003601f168201915b50505050509250818054600181600116156101000203166002900480601f0160208091040260200160405190810160405280929190818152602001828054600181600116156101000203166002900480156102df5780601f106102b4576101008083540402835291602001916102df565b820191906000526020600020905b8154815290600101906020018083116102c257829003601f168201915b50505050509150808054600181600116156101000203166002900480601f01602080910402602001604051908101604052809291908181526020018280546001816001161561010002031660029004801561037b5780601f106103505761010080835404028352916020019161037b565b820191906000526020600020905b81548152906001019060200180831161035e57829003601f168201915b5050505050905093509350935093509193509193565b6060806000805490506040519080825280602002602001820160405280156103d357816020015b6103c0610988565b8152602001906001900390816103b85790505b50905060008090505b6000805490508110156106285760008082815481106103f757fe5b906000526020600020906004020190508060405180608001604052908160008201548152602001600182018054600181600116156101000203166002900480601f0160208091040260200160405190810160405280929190818152602001828054600181600116156101000203166002900480156104b65780601f1061048b576101008083540402835291602001916104b6565b820191906000526020600020905b81548152906001019060200180831161049957829003601f168201915b50505050508152602001600282018054600181600116156101000203166002900480601f0160208091040260200160405190810160405280929190818152602001828054600181600116156101000203166002900480156105585780601f1061052d57610100808354040283529160200191610558565b820191906000526020600020905b81548152906001019060200180831161053b57829003601f168201915b50505050508152602001600382018054600181600116156101000203166002900480601f0160208091040260200160405190810160405280929190818152602001828054600181600116156101000203166002900480156105fa5780601f106105cf576101008083540402835291602001916105fa565b820191906000526020600020905b8154815290600101906020018083116105dd57829003601f168201915b50505050508152505083838151811061060f57fe5b60200260200101819052505080806001019150506103dc565b508091505090565b600080805480919060010161064591906109b0565b508460006001600080549050038154811061065c57fe5b9060005260206000209060040201600001819055508360006001600080549050038154811061068757fe5b906000526020600020906004020160010190805190602001906106ab9291906109e2565b50826000600160008054905003815481106106c257fe5b906000526020600020906004020160020190805190602001906106e69291906109e2565b50816000600160008054905003815481106106fd57fe5b906000526020600020906004020160030190805190602001906107219291906109e2565b5060018490610766576040517f08c379a000000000000000000000000000000000000000000000000000000000815260040161075d9190610e48565b60405180910390fd5b506000805490509050949350505050565b6000818154811061078457fe5b9060005260206000209060040201600091509050806000015490806001018054600181600116156101000203166002900480601f0160208091040260200160405190810160405280929190818152602001828054600181600116156101000203166002900480156108365780601f1061080b57610100808354040283529160200191610836565b820191906000526020600020905b81548152906001019060200180831161081957829003601f168201915b505050505090806002018054600181600116156101000203166002900480601f0160208091040260200160405190810160405280929190818152602001828054600181600116156101000203166002900480156108d45780601f106108a9576101008083540402835291602001916108d4565b820191906000526020600020905b8154815290600101906020018083116108b757829003601f168201915b505050505090806003018054600181600116156101000203166002900480601f0160208091040260200160405190810160405280929190818152602001828054600181600116156101000203166002900480156109725780601f1061094757610100808354040283529160200191610972565b820191906000526020600020905b81548152906001019060200180831161095557829003601f168201915b5050505050905084565b60008080549050905090565b6040518060800160405280600081526020016060815260200160608152602001606081525090565b8154818355818111156109dd576004028160040283600052602060002091820191016109dc9190610a62565b5b505050565b828054600181600116156101000203166002900490600052602060002090601f016020900481019282601f10610a2357805160ff1916838001178555610a51565b82800160010185558215610a51579182015b82811115610a50578251825591602001919060010190610a35565b5b509050610a5e9190610ab9565b5090565b610ab691905b80821115610ab257600080820160009055600182016000610a899190610ade565b600282016000610a999190610ade565b600382016000610aa99190610ade565b50600401610a68565b5090565b90565b610adb91905b80821115610ad7576000816000905550600101610abf565b5090565b90565b50805460018160011615610100020316600290046000825580601f10610b045750610b23565b601f016020900490600052602060002090810190610b229190610ab9565b5b50565b600082601f830112610b3757600080fd5b8135610b4a610b4582610f66565b610f39565b91508082526020830160208301858383011115610b6657600080fd5b610b7183828461100d565b50505092915050565b600081359050610b8981611060565b92915050565b600060208284031215610ba157600080fd5b6000610baf84828501610b7a565b91505092915050565b60008060008060808587031215610bce57600080fd5b6000610bdc87828801610b7a565b945050602085013567ffffffffffffffff811115610bf957600080fd5b610c0587828801610b26565b935050604085013567ffffffffffffffff811115610c2257600080fd5b610c2e87828801610b26565b925050606085013567ffffffffffffffff811115610c4b57600080fd5b610c5787828801610b26565b91505092959194509250565b6000610c6f8383610d97565b905092915050565b6000610c8282610fa2565b610c8c8185610fd0565b935083602082028501610c9e85610f92565b8060005b85811015610cda5784840389528151610cbb8582610c63565b9450610cc683610fc3565b925060208a01995050600181019050610ca2565b50829750879550505050505092915050565b6000610cf782610fb8565b610d018185610ff2565b9350610d1181856020860161101c565b610d1a8161104f565b840191505092915050565b6000610d3082610fad565b610d3a8185610fe1565b9350610d4a81856020860161101c565b610d538161104f565b840191505092915050565b6000610d6982610fad565b610d738185610ff2565b9350610d8381856020860161101c565b610d8c8161104f565b840191505092915050565b6000608083016000830151610daf6000860182610e08565b5060208301518482036020860152610dc78282610d25565b91505060408301518482036040860152610de18282610d25565b91505060608301518482036060860152610dfb8282610d25565b9150508091505092915050565b610e1181611003565b82525050565b610e2081611003565b82525050565b60006020820190508181036000830152610e408184610c77565b905092915050565b60006020820190508181036000830152610e628184610cec565b905092915050565b6000602082019050610e7f6000830184610e17565b92915050565b6000608082019050610e9a6000830187610e17565b8181036020830152610eac8186610cec565b90508181036040830152610ec08185610cec565b90508181036060830152610ed48184610cec565b905095945050505050565b6000608082019050610ef46000830187610e17565b8181036020830152610f068186610d5e565b90508181036040830152610f1a8185610d5e565b90508181036060830152610f2e8184610d5e565b905095945050505050565b6000604051905081810181811067ffffffffffffffff82111715610f5c57600080fd5b8060405250919050565b600067ffffffffffffffff821115610f7d57600080fd5b601f19601f8301169050602081019050919050565b6000819050602082019050919050565b600081519050919050565b600081519050919050565b600081519050919050565b6000602082019050919050565b600082825260208201905092915050565b600082825260208201905092915050565b600082825260208201905092915050565b6000819050919050565b82818337600083830152505050565b60005b8381101561103a57808201518184015260208101905061101f565b83811115611049576000848401525b50505050565b6000601f19601f8301169050919050565b61106981611003565b811461107457600080fd5b5056fea365627a7a7231582093cf2e5ffdb268a4d8647dca7e174625e1ef97243618ddb40a28b39120989df66c6578706572696d656e74616cf564736f6c63430005100040",
  "source": "// SPDX-License-Identifier: MIT\npragma solidity >=0.4.21 <0.7.0;\npragma experimental ABIEncoderV2;\n\ncontract CrimeData {\n  struct CrimeDetails {\n    uint crime_id;\n    string timestamp;\n    string offense_code;\n    string description;\n  }\n  CrimeDetails[] public crime;\n\n  function addCrimeReport(uint _crime_id, string memory _timestamp, string memory _offense_code, string memory _description) public returns(uint) {\n    crime.length++;\n    crime[crime.length-1].crime_id = _crime_id;\n    crime[crime.length-1].timestamp = _timestamp;\n    crime[crime.length-1].offense_code = _offense_code;\n    crime[crime.length-1].description = _description;\n    require(true, _timestamp);\n    return crime.length;\n  }\n  \n  function getCrimeCount() public view returns(uint) {\n    return crime.length;\n  }\n  \n  function getCrimeBlock(uint index) public view returns (uint, string memory, string memory, string memory)\n  {\n    return (crime[index].crime_id, crime[index].timestamp, crime[index].offense_code, crime[index].description);\n  }\n  function getAllCrimeDetails() public view returns (CrimeDetails[] memory)\n  {\n    CrimeDetails[] memory id = new CrimeDetails[](crime.length);\n    for (uint i = 0; i < crime.length; i++) {\n      CrimeDetails storage tempCrime = crime[i];\n      id[i] = tempCrime;\n    }\n    return id;\n  }\n\n}\n",
  "sourcePath": "/Users/dingyiyi/Documents/courses/NMLab/criminal-record/contracts/CrimeData.sol",
  "compiler": {
    "name": "solc",
    "version": "0.5.16+commit.9c3226ce.Emscripten.clang"
  },
  "schemaVersion": "3.3.2",
  "updatedAt": "2020-12-18T08:32:38.535Z",
  "networkType": "ethereum",
  "devdoc": {
    "methods": {}
  },
  "userdoc": {
    "methods": {}
  }
}