{
  "contractName": "CrimeData",
  "abi": [
    {
      "constant": true,
      "inputs": [
        {
          "internalType": "uint256",
          "name": "",
          "type": "uint256"
        }
      ],
      "name": "crime",
      "outputs": [
        {
          "internalType": "string",
          "name": "aaccount",
          "type": "string"
        },
        {
          "internalType": "string",
          "name": "timestamp",
          "type": "string"
        },
        {
          "internalType": "string",
          "name": "offense_code",
          "type": "string"
        },
        {
          "internalType": "string",
          "name": "description",
          "type": "string"
        },
        {
          "internalType": "string",
          "name": "image_url",
          "type": "string"
        },
        {
          "internalType": "int256",
          "name": "reward_state",
          "type": "int256"
        }
      ],
      "payable": false,
      "stateMutability": "view",
      "type": "function"
    },
    {
      "constant": false,
      "inputs": [
        {
          "internalType": "string",
          "name": "_account",
          "type": "string"
        },
        {
          "internalType": "string",
          "name": "_timestamp",
          "type": "string"
        },
        {
          "internalType": "string",
          "name": "_offense_code",
          "type": "string"
        },
        {
          "internalType": "string",
          "name": "_description",
          "type": "string"
        },
        {
          "internalType": "string",
          "name": "_image_url",
          "type": "string"
        }
      ],
      "name": "addCrimeReport",
      "outputs": [
        {
          "internalType": "uint256",
          "name": "",
          "type": "uint256"
        }
      ],
      "payable": false,
      "stateMutability": "nonpayable",
      "type": "function"
    },
    {
      "constant": true,
      "inputs": [],
      "name": "getCrimeCount",
      "outputs": [
        {
          "internalType": "uint256",
          "name": "",
          "type": "uint256"
        }
      ],
      "payable": false,
      "stateMutability": "view",
      "type": "function"
    },
    {
      "constant": true,
      "inputs": [
        {
          "internalType": "uint256",
          "name": "index",
          "type": "uint256"
        }
      ],
      "name": "getCrimeBlock",
      "outputs": [
        {
          "internalType": "string",
          "name": "",
          "type": "string"
        },
        {
          "internalType": "string",
          "name": "",
          "type": "string"
        },
        {
          "internalType": "string",
          "name": "",
          "type": "string"
        },
        {
          "internalType": "string",
          "name": "",
          "type": "string"
        },
        {
          "internalType": "string",
          "name": "",
          "type": "string"
        }
      ],
      "payable": false,
      "stateMutability": "view",
      "type": "function"
    },
    {
      "constant": true,
      "inputs": [],
      "name": "getAllCrimeDetails",
      "outputs": [
        {
          "components": [
            {
              "internalType": "string",
              "name": "aaccount",
              "type": "string"
            },
            {
              "internalType": "string",
              "name": "timestamp",
              "type": "string"
            },
            {
              "internalType": "string",
              "name": "offense_code",
              "type": "string"
            },
            {
              "internalType": "string",
              "name": "description",
              "type": "string"
            },
            {
              "internalType": "string",
              "name": "image_url",
              "type": "string"
            },
            {
              "internalType": "int256",
              "name": "reward_state",
              "type": "int256"
            }
          ],
          "internalType": "struct CrimeData.CrimeDetails[]",
          "name": "",
          "type": "tuple[]"
        }
      ],
      "payable": false,
      "stateMutability": "view",
      "type": "function"
    }
  ],
  "bytecode": "0x608060405234801561001057600080fd5b506115cc806100206000396000f3fe608060405234801561001057600080fd5b50600436106100575760003560e01c8063263745cd1461005c5780633cb4c1cb1461008c578063644f30de146100c0578063e9a51a77146100de578063fdb917ed14610113575b600080fd5b61007660048036036100719190810190610fec565b610131565b6040516100839190611426565b60405180910390f35b6100a660048036036100a191908101906110db565b6102ca565b6040516100b795949392919061132c565b60405180910390f35b6100c8610687565b6040516100d5919061130a565b60405180910390f35b6100f860048036036100f391908101906110db565b610a6a565b60405161010a969594939291906113a2565b60405180910390f35b61011b610dab565b6040516101289190611426565b60405180910390f35b60008080548091906001016101469190610db7565b508560006001600080549050038154811061015d57fe5b90600052602060002090600602016000019080519060200190610181929190610de9565b508460006001600080549050038154811061019857fe5b906000526020600020906006020160010190805190602001906101bc929190610de9565b50836000600160008054905003815481106101d357fe5b906000526020600020906006020160020190805190602001906101f7929190610de9565b508260006001600080549050038154811061020e57fe5b90600052602060002090600602016003019080519060200190610232929190610de9565b508160006001600080549050038154811061024957fe5b9060005260206000209060060201600401908051906020019061026d929190610de9565b507fffffffffffffffffffffffffffffffffffffffffffffffffffffffffffffffff6000600160008054905003815481106102a457fe5b906000526020600020906006020160050181905550600080549050905095945050505050565b6060806060806060600086815481106102df57fe5b9060005260206000209060060201600001600087815481106102fd57fe5b90600052602060002090600602016001016000888154811061031b57fe5b90600052602060002090600602016002016000898154811061033957fe5b906000526020600020906006020160030160008a8154811061035757fe5b9060005260206000209060060201600401848054600181600116156101000203166002900480601f0160208091040260200160405190810160405280929190818152602001828054600181600116156101000203166002900480156103fd5780601f106103d2576101008083540402835291602001916103fd565b820191906000526020600020905b8154815290600101906020018083116103e057829003601f168201915b50505050509450838054600181600116156101000203166002900480601f0160208091040260200160405190810160405280929190818152602001828054600181600116156101000203166002900480156104995780601f1061046e57610100808354040283529160200191610499565b820191906000526020600020905b81548152906001019060200180831161047c57829003601f168201915b50505050509350828054600181600116156101000203166002900480601f0160208091040260200160405190810160405280929190818152602001828054600181600116156101000203166002900480156105355780601f1061050a57610100808354040283529160200191610535565b820191906000526020600020905b81548152906001019060200180831161051857829003601f168201915b50505050509250818054600181600116156101000203166002900480601f0160208091040260200160405190810160405280929190818152602001828054600181600116156101000203166002900480156105d15780601f106105a6576101008083540402835291602001916105d1565b820191906000526020600020905b8154815290600101906020018083116105b457829003601f168201915b50505050509150808054600181600116156101000203166002900480601f01602080910402602001604051908101604052809291908181526020018280546001816001161561010002031660029004801561066d5780601f106106425761010080835404028352916020019161066d565b820191906000526020600020905b81548152906001019060200180831161065057829003601f168201915b505050505090509450945094509450945091939590929450565b6060806000805490506040519080825280602002602001820160405280156106c957816020015b6106b6610e69565b8152602001906001900390816106ae5790505b50905060008090505b600080549050811015610a625760008082815481106106ed57fe5b90600052602060002090600602019050806040518060c0016040529081600082018054600181600116156101000203166002900480601f0160208091040260200160405190810160405280929190818152602001828054600181600116156101000203166002900480156107a25780601f10610777576101008083540402835291602001916107a2565b820191906000526020600020905b81548152906001019060200180831161078557829003601f168201915b50505050508152602001600182018054600181600116156101000203166002900480601f0160208091040260200160405190810160405280929190818152602001828054600181600116156101000203166002900480156108445780601f1061081957610100808354040283529160200191610844565b820191906000526020600020905b81548152906001019060200180831161082757829003601f168201915b50505050508152602001600282018054600181600116156101000203166002900480601f0160208091040260200160405190810160405280929190818152602001828054600181600116156101000203166002900480156108e65780601f106108bb576101008083540402835291602001916108e6565b820191906000526020600020905b8154815290600101906020018083116108c957829003601f168201915b50505050508152602001600382018054600181600116156101000203166002900480601f0160208091040260200160405190810160405280929190818152602001828054600181600116156101000203166002900480156109885780601f1061095d57610100808354040283529160200191610988565b820191906000526020600020905b81548152906001019060200180831161096b57829003601f168201915b50505050508152602001600482018054600181600116156101000203166002900480601f016020809104026020016040519081016040528092919081815260200182805460018160011615610100020316600290048015610a2a5780601f106109ff57610100808354040283529160200191610a2a565b820191906000526020600020905b815481529060010190602001808311610a0d57829003601f168201915b50505050508152602001600582015481525050838381518110610a4957fe5b60200260200101819052505080806001019150506106d2565b508091505090565b60008181548110610a7757fe5b9060005260206000209060060201600091509050806000018054600181600116156101000203166002900480601f016020809104026020016040519081016040528092919081815260200182805460018160011615610100020316600290048015610b235780601f10610af857610100808354040283529160200191610b23565b820191906000526020600020905b815481529060010190602001808311610b0657829003601f168201915b505050505090806001018054600181600116156101000203166002900480601f016020809104026020016040519081016040528092919081815260200182805460018160011615610100020316600290048015610bc15780601f10610b9657610100808354040283529160200191610bc1565b820191906000526020600020905b815481529060010190602001808311610ba457829003601f168201915b505050505090806002018054600181600116156101000203166002900480601f016020809104026020016040519081016040528092919081815260200182805460018160011615610100020316600290048015610c5f5780601f10610c3457610100808354040283529160200191610c5f565b820191906000526020600020905b815481529060010190602001808311610c4257829003601f168201915b505050505090806003018054600181600116156101000203166002900480601f016020809104026020016040519081016040528092919081815260200182805460018160011615610100020316600290048015610cfd5780601f10610cd257610100808354040283529160200191610cfd565b820191906000526020600020905b815481529060010190602001808311610ce057829003601f168201915b505050505090806004018054600181600116156101000203166002900480601f016020809104026020016040519081016040528092919081815260200182805460018160011615610100020316600290048015610d9b5780601f10610d7057610100808354040283529160200191610d9b565b820191906000526020600020905b815481529060010190602001808311610d7e57829003601f168201915b5050505050908060050154905086565b60008080549050905090565b815481835581811115610de457600602816006028360005260206000209182019101610de39190610e9f565b5b505050565b828054600181600116156101000203166002900490600052602060002090601f016020900481019282601f10610e2a57805160ff1916838001178555610e58565b82800160010185558215610e58579182015b82811115610e57578251825591602001919060010190610e3c565b5b509050610e659190610f16565b5090565b6040518060c001604052806060815260200160608152602001606081526020016060815260200160608152602001600081525090565b610f1391905b80821115610f0f5760008082016000610ebe9190610f3b565b600182016000610ece9190610f3b565b600282016000610ede9190610f3b565b600382016000610eee9190610f3b565b600482016000610efe9190610f3b565b600582016000905550600601610ea5565b5090565b90565b610f3891905b80821115610f34576000816000905550600101610f1c565b5090565b90565b50805460018160011615610100020316600290046000825580601f10610f615750610f80565b601f016020900490600052602060002090810190610f7f9190610f16565b5b50565b600082601f830112610f9457600080fd5b8135610fa7610fa28261146e565b611441565b91508082526020830160208301858383011115610fc357600080fd5b610fce83828461151f565b50505092915050565b600081359050610fe681611572565b92915050565b600080600080600060a0868803121561100457600080fd5b600086013567ffffffffffffffff81111561101e57600080fd5b61102a88828901610f83565b955050602086013567ffffffffffffffff81111561104757600080fd5b61105388828901610f83565b945050604086013567ffffffffffffffff81111561107057600080fd5b61107c88828901610f83565b935050606086013567ffffffffffffffff81111561109957600080fd5b6110a588828901610f83565b925050608086013567ffffffffffffffff8111156110c257600080fd5b6110ce88828901610f83565b9150509295509295909350565b6000602082840312156110ed57600080fd5b60006110fb84828501610fd7565b91505092915050565b60006111108383611256565b905092915050565b6000611123826114aa565b61112d81856114d8565b93508360208202850161113f8561149a565b8060005b8581101561117b578484038952815161115c8582611104565b9450611167836114cb565b925060208a01995050600181019050611143565b50829750879550505050505092915050565b6111968161150b565b82525050565b6111a58161150b565b82525050565b60006111b6826114c0565b6111c081856114fa565b93506111d081856020860161152e565b6111d981611561565b840191505092915050565b60006111ef826114b5565b6111f981856114e9565b935061120981856020860161152e565b61121281611561565b840191505092915050565b6000611228826114b5565b61123281856114fa565b935061124281856020860161152e565b61124b81611561565b840191505092915050565b600060c083016000830151848203600086015261127382826111e4565b9150506020830151848203602086015261128d82826111e4565b915050604083015184820360408601526112a782826111e4565b915050606083015184820360608601526112c182826111e4565b915050608083015184820360808601526112db82826111e4565b91505060a08301516112f060a086018261118d565b508091505092915050565b61130481611515565b82525050565b600060208201905081810360008301526113248184611118565b905092915050565b600060a082019050818103600083015261134681886111ab565b9050818103602083015261135a81876111ab565b9050818103604083015261136e81866111ab565b9050818103606083015261138281856111ab565b9050818103608083015261139681846111ab565b90509695505050505050565b600060c08201905081810360008301526113bc818961121d565b905081810360208301526113d0818861121d565b905081810360408301526113e4818761121d565b905081810360608301526113f8818661121d565b9050818103608083015261140c818561121d565b905061141b60a083018461119c565b979650505050505050565b600060208201905061143b60008301846112fb565b92915050565b6000604051905081810181811067ffffffffffffffff8211171561146457600080fd5b8060405250919050565b600067ffffffffffffffff82111561148557600080fd5b601f19601f8301169050602081019050919050565b6000819050602082019050919050565b600081519050919050565b600081519050919050565b600081519050919050565b6000602082019050919050565b600082825260208201905092915050565b600082825260208201905092915050565b600082825260208201905092915050565b6000819050919050565b6000819050919050565b82818337600083830152505050565b60005b8381101561154c578082015181840152602081019050611531565b8381111561155b576000848401525b50505050565b6000601f19601f8301169050919050565b61157b81611515565b811461158657600080fd5b5056fea365627a7a7231582060a88aa77b0300e7016ad4c2530fd4b938aaa9b1e827d93fe875984a4fd70c766c6578706572696d656e74616cf564736f6c63430005100040",
  "source": "// SPDX-License-Identifier: MIT\npragma solidity >=0.4.21 <0.7.0;\npragma experimental ABIEncoderV2;\n\ncontract CrimeData {\n  struct CrimeDetails {\n    string aaccount;\n    string timestamp;\n    string offense_code;\n    string description;\n    string image_url;\n\n    int reward_state;\n  }\n  CrimeDetails[] public crime;\n\n  function addCrimeReport(string memory _account, string memory _timestamp, string memory _offense_code, string memory _description, string memory _image_url) public returns(uint) {\n    crime.length++;\n    crime[crime.length-1].aaccount = _account;\n    crime[crime.length-1].timestamp = _timestamp;\n    crime[crime.length-1].offense_code = _offense_code;\n    crime[crime.length-1].description = _description;\n    crime[crime.length-1].image_url = _image_url;\n    crime[crime.length-1].reward_state = -1;  // -1 not verified crime\n    return crime.length;\n  }\n  \n  function getCrimeCount() public view returns(uint) {\n    return crime.length;\n  }\n  \n  function getCrimeBlock(uint index) public view returns (string memory, string memory, string memory, string memory, string memory){\n    return (crime[index].aaccount, crime[index].timestamp, crime[index].offense_code, crime[index].description, crime[index].image_url);\n  }\n\n  function getAllCrimeDetails() public view returns (CrimeDetails[] memory){\n    CrimeDetails[] memory allCrime = new CrimeDetails[](crime.length);\n    for (uint i = 0; i < crime.length; i++) {\n      CrimeDetails storage tempCrime = crime[i];\n      allCrime[i] = tempCrime;\n    }\n    return allCrime;\n  }\n\n}\n",
  "sourcePath": "/Users/dingyiyi/Documents/courses/NMLab/criminal-record/contracts/CrimeData.sol",
  "compiler": {
    "name": "solc",
    "version": "0.5.16+commit.9c3226ce.Emscripten.clang"
  },
  "schemaVersion": "3.3.2",
  "updatedAt": "2020-12-24T15:43:09.226Z",
  "networkType": "ethereum",
  "devdoc": {
    "methods": {}
  },
  "userdoc": {
    "methods": {}
  }
}